{
  "_format": "hh-sol-artifact-1",
  "contractName": "PayPerieVault",
  "sourceName": "contracts/PayPerieVault.sol",
  "abi": [
    {
      "inputs": [
        {
          "internalType": "contract IERC20",
          "name": "_usdcToken",
          "type": "address"
        },
        {
          "internalType": "address",
          "name": "_treasuryWallet",
          "type": "address"
        }
      ],
      "stateMutability": "nonpayable",
      "type": "constructor"
    },
    {
      "inputs": [],
      "name": "AccessControlBadConfirmation",
      "type": "error"
    },
    {
      "inputs": [
        {
          "internalType": "address",
          "name": "account",
          "type": "address"
        },
        {
          "internalType": "bytes32",
          "name": "neededRole",
          "type": "bytes32"
        }
      ],
      "name": "AccessControlUnauthorizedAccount",
      "type": "error"
    },
    {
      "inputs": [],
      "name": "ReentrancyGuardReentrantCall",
      "type": "error"
    },
    {
      "inputs": [
        {
          "internalType": "address",
          "name": "token",
          "type": "address"
        }
      ],
      "name": "SafeERC20FailedOperation",
      "type": "error"
    },
    {
      "anonymous": false,
      "inputs": [
        {
          "indexed": true,
          "internalType": "address",
          "name": "author",
          "type": "address"
        },
        {
          "indexed": false,
          "internalType": "enum PayPerieVault.AuthorTier",
          "name": "tier",
          "type": "uint8"
        }
      ],
      "name": "AuthorTierUpdated",
      "type": "event"
    },
    {
      "anonymous": false,
      "inputs": [
        {
          "indexed": true,
          "internalType": "address",
          "name": "author",
          "type": "address"
        },
        {
          "indexed": false,
          "internalType": "uint256",
          "name": "amount",
          "type": "uint256"
        },
        {
          "indexed": false,
          "internalType": "uint256",
          "name": "fee",
          "type": "uint256"
        },
        {
          "indexed": false,
          "internalType": "uint256",
          "name": "lockedAmount",
          "type": "uint256"
        }
      ],
      "name": "PaymentSettled",
      "type": "event"
    },
    {
      "anonymous": false,
      "inputs": [
        {
          "indexed": false,
          "internalType": "uint256",
          "name": "newFeeBps",
          "type": "uint256"
        }
      ],
      "name": "ProtocolFeeUpdated",
      "type": "event"
    },
    {
      "anonymous": false,
      "inputs": [
        {
          "indexed": true,
          "internalType": "address",
          "name": "author",
          "type": "address"
        },
        {
          "indexed": false,
          "internalType": "uint256",
          "name": "amount",
          "type": "uint256"
        }
      ],
      "name": "RevenueClaimed",
      "type": "event"
    },
    {
      "anonymous": false,
      "inputs": [
        {
          "indexed": true,
          "internalType": "bytes32",
          "name": "role",
          "type": "bytes32"
        },
        {
          "indexed": true,
          "internalType": "bytes32",
          "name": "previousAdminRole",
          "type": "bytes32"
        },
        {
          "indexed": true,
          "internalType": "bytes32",
          "name": "newAdminRole",
          "type": "bytes32"
        }
      ],
      "name": "RoleAdminChanged",
      "type": "event"
    },
    {
      "anonymous": false,
      "inputs": [
        {
          "indexed": true,
          "internalType": "bytes32",
          "name": "role",
          "type": "bytes32"
        },
        {
          "indexed": true,
          "internalType": "address",
          "name": "account",
          "type": "address"
        },
        {
          "indexed": true,
          "internalType": "address",
          "name": "sender",
          "type": "address"
        }
      ],
      "name": "RoleGranted",
      "type": "event"
    },
    {
      "anonymous": false,
      "inputs": [
        {
          "indexed": true,
          "internalType": "bytes32",
          "name": "role",
          "type": "bytes32"
        },
        {
          "indexed": true,
          "internalType": "address",
          "name": "account",
          "type": "address"
        },
        {
          "indexed": true,
          "internalType": "address",
          "name": "sender",
          "type": "address"
        }
      ],
      "name": "RoleRevoked",
      "type": "event"
    },
    {
      "anonymous": false,
      "inputs": [
        {
          "indexed": true,
          "internalType": "address",
          "name": "treasury",
          "type": "address"
        }
      ],
      "name": "TreasuryUpdated",
      "type": "event"
    },
    {
      "inputs": [],
      "name": "DEFAULT_ADMIN_ROLE",
      "outputs": [
        {
          "internalType": "bytes32",
          "name": "",
          "type": "bytes32"
        }
      ],
      "stateMutability": "view",
      "type": "function"
    },
    {
      "inputs": [],
      "name": "FACILITATOR_ROLE",
      "outputs": [
        {
          "internalType": "bytes32",
          "name": "",
          "type": "bytes32"
        }
      ],
      "stateMutability": "view",
      "type": "function"
    },
    {
      "inputs": [
        {
          "internalType": "address",
          "name": "",
          "type": "address"
        }
      ],
      "name": "authors",
      "outputs": [
        {
          "internalType": "enum PayPerieVault.AuthorTier",
          "name": "tier",
          "type": "uint8"
        },
        {
          "internalType": "uint256",
          "name": "availableBalance",
          "type": "uint256"
        },
        {
          "internalType": "uint256",
          "name": "lockedBalance",
          "type": "uint256"
        },
        {
          "internalType": "uint256",
          "name": "unlockTime",
          "type": "uint256"
        }
      ],
      "stateMutability": "view",
      "type": "function"
    },
    {
      "inputs": [],
      "name": "claimRevenue",
      "outputs": [],
      "stateMutability": "nonpayable",
      "type": "function"
    },
    {
      "inputs": [
        {
          "internalType": "bytes32",
          "name": "role",
          "type": "bytes32"
        }
      ],
      "name": "getRoleAdmin",
      "outputs": [
        {
          "internalType": "bytes32",
          "name": "",
          "type": "bytes32"
        }
      ],
      "stateMutability": "view",
      "type": "function"
    },
    {
      "inputs": [
        {
          "internalType": "bytes32",
          "name": "role",
          "type": "bytes32"
        },
        {
          "internalType": "address",
          "name": "account",
          "type": "address"
        }
      ],
      "name": "grantRole",
      "outputs": [],
      "stateMutability": "nonpayable",
      "type": "function"
    },
    {
      "inputs": [
        {
          "internalType": "bytes32",
          "name": "role",
          "type": "bytes32"
        },
        {
          "internalType": "address",
          "name": "account",
          "type": "address"
        }
      ],
      "name": "hasRole",
      "outputs": [
        {
          "internalType": "bool",
          "name": "",
          "type": "bool"
        }
      ],
      "stateMutability": "view",
      "type": "function"
    },
    {
      "inputs": [],
      "name": "protocolFeeBps",
      "outputs": [
        {
          "internalType": "uint256",
          "name": "",
          "type": "uint256"
        }
      ],
      "stateMutability": "view",
      "type": "function"
    },
    {
      "inputs": [
        {
          "internalType": "bytes32",
          "name": "role",
          "type": "bytes32"
        },
        {
          "internalType": "address",
          "name": "callerConfirmation",
          "type": "address"
        }
      ],
      "name": "renounceRole",
      "outputs": [],
      "stateMutability": "nonpayable",
      "type": "function"
    },
    {
      "inputs": [
        {
          "internalType": "bytes32",
          "name": "role",
          "type": "bytes32"
        },
        {
          "internalType": "address",
          "name": "account",
          "type": "address"
        }
      ],
      "name": "revokeRole",
      "outputs": [],
      "stateMutability": "nonpayable",
      "type": "function"
    },
    {
      "inputs": [
        {
          "internalType": "address",
          "name": "author",
          "type": "address"
        },
        {
          "internalType": "uint8",
          "name": "tier",
          "type": "uint8"
        }
      ],
      "name": "setAuthorTier",
      "outputs": [],
      "stateMutability": "nonpayable",
      "type": "function"
    },
    {
      "inputs": [
        {
          "internalType": "uint256",
          "name": "newFeeBps",
          "type": "uint256"
        }
      ],
      "name": "setProtocolFeeBps",
      "outputs": [],
      "stateMutability": "nonpayable",
      "type": "function"
    },
    {
      "inputs": [
        {
          "internalType": "address",
          "name": "newTreasury",
          "type": "address"
        }
      ],
      "name": "setTreasury",
      "outputs": [],
      "stateMutability": "nonpayable",
      "type": "function"
    },
    {
      "inputs": [
        {
          "internalType": "address",
          "name": "author",
          "type": "address"
        },
        {
          "internalType": "uint256",
          "name": "amount",
          "type": "uint256"
        }
      ],
      "name": "settlePayment",
      "outputs": [],
      "stateMutability": "nonpayable",
      "type": "function"
    },
    {
      "inputs": [
        {
          "internalType": "bytes4",
          "name": "interfaceId",
          "type": "bytes4"
        }
      ],
      "name": "supportsInterface",
      "outputs": [
        {
          "internalType": "bool",
          "name": "",
          "type": "bool"
        }
      ],
      "stateMutability": "view",
      "type": "function"
    },
    {
      "inputs": [],
      "name": "treasuryWallet",
      "outputs": [
        {
          "internalType": "address",
          "name": "",
          "type": "address"
        }
      ],
      "stateMutability": "view",
      "type": "function"
    },
    {
      "inputs": [],
      "name": "usdcToken",
      "outputs": [
        {
          "internalType": "contract IERC20",
          "name": "",
          "type": "address"
        }
      ],
      "stateMutability": "view",
      "type": "function"
    }
  ],
  "bytecode": "0x60a060405260646003553480156200001657600080fd5b5060405162001113380380620011138339810160408190526200003991620001d7565b600180556001600160a01b038216620000895760405162461bcd60e51b815260206004820152600d60248201526c24b73b30b634b2103a37b5b2b760991b60448201526064015b60405180910390fd5b6001600160a01b038116620000d45760405162461bcd60e51b815260206004820152601060248201526f496e76616c696420747265617375727960801b604482015260640162000080565b6001600160a01b03828116608052600280546001600160a01b031916918316919091179055620001066000336200010f565b50505062000216565b6000828152602081815260408083206001600160a01b038516845290915281205460ff16620001b4576000838152602081815260408083206001600160a01b03861684529091529020805460ff191660011790556200016b3390565b6001600160a01b0316826001600160a01b0316847f2f8788117e7eff1d82e926ec794901d17c78024a50270940304540a733656f0d60405160405180910390a4506001620001b8565b5060005b92915050565b6001600160a01b0381168114620001d457600080fd5b50565b60008060408385031215620001eb57600080fd5b8251620001f881620001be565b60208401519092506200020b81620001be565b809150509250929050565b608051610ecc620002476000396000818161013d01528181610448015281816104a601526106ab0152610ecc6000f3fe608060405234801561001057600080fd5b506004361061010b5760003560e01c8063564f4f76116100a2578063bf9c500111610071578063bf9c500114610249578063c0417e5814610292578063d547741f146102a5578063dd1fa3ee146102b8578063f0f44260146102cb57600080fd5b8063564f4f76146101ff57806391d1485414610207578063a217fddf1461021a578063a7302b071461022257600080fd5b806335659fb8116100de57806335659fb8146101bd57806336568abe146101c65780633e60e348146101d95780634626402b146101ec57600080fd5b806301ffc9a71461011057806311eac85514610138578063248a9ca3146101775780632f2ff15d146101a8575b600080fd5b61012361011e366004610c9e565b6102de565b60405190151581526020015b60405180910390f35b61015f7f000000000000000000000000000000000000000000000000000000000000000081565b6040516001600160a01b03909116815260200161012f565b61019a610185366004610ccf565b60009081526020819052604090206001015490565b60405190815260200161012f565b6101bb6101b6366004610d04565b610315565b005b61019a60035481565b6101bb6101d4366004610d04565b610340565b6101bb6101e7366004610d30565b610378565b60025461015f906001600160a01b031681565b6101bb6105fa565b610123610215366004610d04565b610714565b61019a600081565b61019a7f0424cf38c8834beebcaa33d45624a52f86494e75143c4aef2aafdb8bd68c732e81565b610282610257366004610d5a565b600460205260009081526040902080546001820154600283015460039093015460ff90921692909184565b60405161012f9493929190610dad565b6101bb6102a0366004610ccf565b61073d565b6101bb6102b3366004610d04565b6107c8565b6101bb6102c6366004610dd6565b6107ed565b6101bb6102d9366004610d5a565b610928565b60006001600160e01b03198216637965db0b60e01b148061030f57506301ffc9a760e01b6001600160e01b03198316145b92915050565b600082815260208190526040902060010154610330816109c7565b61033a83836109d4565b50505050565b6001600160a01b03811633146103695760405163334bd91960e11b815260040160405180910390fd5b6103738282610a66565b505050565b610380610ad1565b7f0424cf38c8834beebcaa33d45624a52f86494e75143c4aef2aafdb8bd68c732e6103aa816109c7565b6001600160a01b0383166103f65760405162461bcd60e51b815260206004820152600e60248201526d24b73b30b634b21030baba3437b960911b60448201526064015b60405180910390fd5b6000821161043b5760405162461bcd60e51b81526020600482015260126024820152710416d6f756e74206d757374206265203e20360741b60448201526064016103ed565b6104706001600160a01b037f000000000000000000000000000000000000000000000000000000000000000016333085610afb565b6000612710600354846104839190610e29565b61048d9190610e40565b905080156104cf576002546104cf906001600160a01b037f00000000000000000000000000000000000000000000000000000000000000008116911683610b62565b60006104db8285610e62565b6001600160a01b0386166000908152600460205260408120549192509081906105069060ff16610b93565b9092509050600061271061051a8486610e29565b6105249190610e40565b905060006105328286610e62565b6001600160a01b038a1660009081526004602052604081206001810180549394509092859290610563908490610e75565b925050819055508181600201600082825461057e9190610e75565b90915550508115610599576105938442610e75565b60038201555b604080518a8152602081018990529081018390526001600160a01b038b16907fcd57ffe495636128d73fc3c98785ee450725eb419cbe4047c3492696839a12649060600160405180910390a250505050505050506105f660018055565b5050565b610602610ad1565b336000908152600460205260409020600281015415801590610628575080600301544210155b156106525780600201548160010160008282546106459190610e75565b9091555050600060028201555b6001810154806106975760405162461bcd60e51b815260206004820152601060248201526f4e6f7468696e6720746f20636c61696d60801b60448201526064016103ed565b600060018301556106d26001600160a01b037f0000000000000000000000000000000000000000000000000000000000000000163383610b62565b60405181815233907fc15f451120b13b6b40c6ad6203614ab3088308bef9150c0d6f46ea79bf4642249060200160405180910390a2505061071260018055565b565b6000918252602082815260408084206001600160a01b0393909316845291905290205460ff1690565b6000610748816109c7565b61271082111561078c5760405162461bcd60e51b815260206004820152600f60248201526e496e76616c6964206665652062707360881b60448201526064016103ed565b60038290556040518281527fd10d75876659a287a59a6ccfa2e3fff42f84d94b542837acd30bc184d562de409060200160405180910390a15050565b6000828152602081905260409020600101546107e3816109c7565b61033a8383610a66565b60006107f8816109c7565b6001600160a01b03831661083f5760405162461bcd60e51b815260206004820152600e60248201526d24b73b30b634b21030baba3437b960911b60448201526064016103ed565b600260ff831611156108825760405162461bcd60e51b815260206004820152600c60248201526b24b73b30b634b2103a34b2b960a11b60448201526064016103ed565b8160ff16600281111561089757610897610d75565b6001600160a01b0384166000908152600460205260409020805460ff191660018360028111156108c9576108c9610d75565b0217905550826001600160a01b03167f9d30f1f846912550452f2fbe2d794511d09f234af528824b1064a9634bd543058360ff16600281111561090e5761090e610d75565b60405161091b9190610e88565b60405180910390a2505050565b6000610933816109c7565b6001600160a01b03821661097c5760405162461bcd60e51b815260206004820152601060248201526f496e76616c696420747265617375727960801b60448201526064016103ed565b600280546001600160a01b0319166001600160a01b0384169081179091556040517f7dae230f18360d76a040c81f050aa14eb9d6dc7901b20fc5d855e2a20fe814d190600090a25050565b6109d18133610bf4565b50565b60006109e08383610714565b610a5e576000838152602081815260408083206001600160a01b03861684529091529020805460ff19166001179055610a163390565b6001600160a01b0316826001600160a01b0316847f2f8788117e7eff1d82e926ec794901d17c78024a50270940304540a733656f0d60405160405180910390a450600161030f565b50600061030f565b6000610a728383610714565b15610a5e576000838152602081815260408083206001600160a01b0386168085529252808320805460ff1916905551339286917ff6391f5c32d9c69d2a47ea670b442974b53935d1edc7fd64eb21e047a839171b9190a450600161030f565b600260015403610af457604051633ee5aeb560e01b815260040160405180910390fd5b6002600155565b6040516001600160a01b03848116602483015283811660448301526064820183905261033a9186918216906323b872dd906084015b604051602081830303815290604052915060e01b6020820180516001600160e01b038381831617835250505050610c2d565b6040516001600160a01b0383811660248301526044820183905261037391859182169063a9059cbb90606401610b30565b60008080836002811115610ba957610ba9610d75565b03610bbd57506103e8926213c68092509050565b6001836002811115610bd157610bd1610d75565b03610be557506113889262093a8092509050565b50612328926201518092509050565b610bfe8282610714565b6105f65760405163e2517d3f60e01b81526001600160a01b0382166004820152602481018390526044016103ed565b600080602060008451602086016000885af180610c50576040513d6000823e3d81fd5b50506000513d91508115610c68578060011415610c75565b6001600160a01b0384163b155b1561033a57604051635274afe760e01b81526001600160a01b03851660048201526024016103ed565b600060208284031215610cb057600080fd5b81356001600160e01b031981168114610cc857600080fd5b9392505050565b600060208284031215610ce157600080fd5b5035919050565b80356001600160a01b0381168114610cff57600080fd5b919050565b60008060408385031215610d1757600080fd5b82359150610d2760208401610ce8565b90509250929050565b60008060408385031215610d4357600080fd5b610d4c83610ce8565b946020939093013593505050565b600060208284031215610d6c57600080fd5b610cc882610ce8565b634e487b7160e01b600052602160045260246000fd5b60038110610da957634e487b7160e01b600052602160045260246000fd5b9052565b60808101610dbb8287610d8b565b84602083015283604083015282606083015295945050505050565b60008060408385031215610de957600080fd5b610df283610ce8565b9150602083013560ff81168114610e0857600080fd5b809150509250929050565b634e487b7160e01b600052601160045260246000fd5b808202811582820484141761030f5761030f610e13565b600082610e5d57634e487b7160e01b600052601260045260246000fd5b500490565b8181038181111561030f5761030f610e13565b8082018082111561030f5761030f610e13565b6020810161030f8284610d8b56fea2646970667358221220961556a4a35188f88686dfcd698c9fc9c0726824fa637d056a0b06234895d03764736f6c63430008140033",
  "linkReferences": {},
  "deployedLinkReferences": {}
}